{
  "_format": "hh-sol-artifact-1",
  "contractName": "SupplyChain",
  "sourceName": "contracts/SupplyChain.sol",
  "abi": [
    {
      "inputs": [],
      "stateMutability": "nonpayable",
      "type": "constructor"
    },
    {
      "anonymous": false,
      "inputs": [
        {
          "indexed": true,
          "internalType": "uint256",
          "name": "id",
          "type": "uint256"
        },
        {
          "indexed": true,
          "internalType": "address",
          "name": "wallet",
          "type": "address"
        },
        {
          "indexed": false,
          "internalType": "string",
          "name": "name",
          "type": "string"
        },
        {
          "indexed": false,
          "internalType": "enum SupplyChain.RoleType",
          "name": "role",
          "type": "uint8"
        }
      ],
      "name": "BusinessRegistered",
      "type": "event"
    },
    {
      "anonymous": false,
      "inputs": [
        {
          "indexed": true,
          "internalType": "uint256",
          "name": "id",
          "type": "uint256"
        },
        {
          "indexed": false,
          "internalType": "string",
          "name": "name",
          "type": "string"
        }
      ],
      "name": "ProductRegistered",
      "type": "event"
    },
    {
      "anonymous": false,
      "inputs": [
        {
          "indexed": true,
          "internalType": "uint256",
          "name": "id",
          "type": "uint256"
        },
        {
          "indexed": false,
          "internalType": "enum SupplyChain.ProductStage",
          "name": "newStage",
          "type": "uint8"
        }
      ],
      "name": "ProductStatusUpdated",
      "type": "event"
    },
    {
      "inputs": [],
      "name": "businessCount",
      "outputs": [
        {
          "internalType": "uint256",
          "name": "",
          "type": "uint256"
        }
      ],
      "stateMutability": "view",
      "type": "function"
    },
    {
      "inputs": [
        {
          "internalType": "address",
          "name": "",
          "type": "address"
        }
      ],
      "name": "businessMapping",
      "outputs": [
        {
          "internalType": "uint256",
          "name": "",
          "type": "uint256"
        }
      ],
      "stateMutability": "view",
      "type": "function"
    },
    {
      "inputs": [
        {
          "internalType": "uint256",
          "name": "",
          "type": "uint256"
        }
      ],
      "name": "businesses",
      "outputs": [
        {
          "internalType": "uint256",
          "name": "id",
          "type": "uint256"
        },
        {
          "internalType": "address",
          "name": "wallet",
          "type": "address"
        },
        {
          "internalType": "string",
          "name": "name",
          "type": "string"
        },
        {
          "internalType": "string",
          "name": "businessAddress",
          "type": "string"
        },
        {
          "internalType": "string",
          "name": "phoneNumber",
          "type": "string"
        },
        {
          "internalType": "string",
          "name": "companyRegNumber",
          "type": "string"
        },
        {
          "internalType": "enum SupplyChain.RoleType",
          "name": "role",
          "type": "uint8"
        }
      ],
      "stateMutability": "view",
      "type": "function"
    },
    {
      "inputs": [
        {
          "internalType": "address",
          "name": "_wallet",
          "type": "address"
        }
      ],
      "name": "getBusinessByWallet",
      "outputs": [
        {
          "components": [
            {
              "internalType": "uint256",
              "name": "id",
              "type": "uint256"
            },
            {
              "internalType": "address",
              "name": "wallet",
              "type": "address"
            },
            {
              "internalType": "string",
              "name": "name",
              "type": "string"
            },
            {
              "internalType": "string",
              "name": "businessAddress",
              "type": "string"
            },
            {
              "internalType": "string",
              "name": "phoneNumber",
              "type": "string"
            },
            {
              "internalType": "string",
              "name": "companyRegNumber",
              "type": "string"
            },
            {
              "internalType": "enum SupplyChain.RoleType",
              "name": "role",
              "type": "uint8"
            }
          ],
          "internalType": "struct SupplyChain.Business",
          "name": "",
          "type": "tuple"
        }
      ],
      "stateMutability": "view",
      "type": "function"
    },
    {
      "inputs": [
        {
          "internalType": "uint256",
          "name": "productId",
          "type": "uint256"
        }
      ],
      "name": "getProductStatus",
      "outputs": [
        {
          "internalType": "string",
          "name": "",
          "type": "string"
        }
      ],
      "stateMutability": "view",
      "type": "function"
    },
    {
      "inputs": [
        {
          "internalType": "uint256",
          "name": "productId",
          "type": "uint256"
        }
      ],
      "name": "markAsSold",
      "outputs": [],
      "stateMutability": "nonpayable",
      "type": "function"
    },
    {
      "inputs": [
        {
          "internalType": "uint256",
          "name": "productId",
          "type": "uint256"
        }
      ],
      "name": "moveToDistribution",
      "outputs": [],
      "stateMutability": "nonpayable",
      "type": "function"
    },
    {
      "inputs": [
        {
          "internalType": "uint256",
          "name": "productId",
          "type": "uint256"
        }
      ],
      "name": "moveToManufacturing",
      "outputs": [],
      "stateMutability": "nonpayable",
      "type": "function"
    },
    {
      "inputs": [
        {
          "internalType": "uint256",
          "name": "productId",
          "type": "uint256"
        }
      ],
      "name": "moveToRetail",
      "outputs": [],
      "stateMutability": "nonpayable",
      "type": "function"
    },
    {
      "inputs": [],
      "name": "owner",
      "outputs": [
        {
          "internalType": "address",
          "name": "",
          "type": "address"
        }
      ],
      "stateMutability": "view",
      "type": "function"
    },
    {
      "inputs": [],
      "name": "productCounter",
      "outputs": [
        {
          "internalType": "uint256",
          "name": "",
          "type": "uint256"
        }
      ],
      "stateMutability": "view",
      "type": "function"
    },
    {
      "inputs": [
        {
          "internalType": "uint256",
          "name": "",
          "type": "uint256"
        }
      ],
      "name": "products",
      "outputs": [
        {
          "internalType": "uint256",
          "name": "id",
          "type": "uint256"
        },
        {
          "internalType": "string",
          "name": "name",
          "type": "string"
        },
        {
          "internalType": "string",
          "name": "description",
          "type": "string"
        },
        {
          "internalType": "uint256",
          "name": "supplierId",
          "type": "uint256"
        },
        {
          "internalType": "uint256",
          "name": "manufacturerId",
          "type": "uint256"
        },
        {
          "internalType": "uint256",
          "name": "distributorId",
          "type": "uint256"
        },
        {
          "internalType": "uint256",
          "name": "retailerId",
          "type": "uint256"
        },
        {
          "internalType": "enum SupplyChain.ProductStage",
          "name": "stage",
          "type": "uint8"
        }
      ],
      "stateMutability": "view",
      "type": "function"
    },
    {
      "inputs": [
        {
          "internalType": "address",
          "name": "_wallet",
          "type": "address"
        },
        {
          "internalType": "string",
          "name": "_name",
          "type": "string"
        },
        {
          "internalType": "string",
          "name": "_businessAddress",
          "type": "string"
        },
        {
          "internalType": "string",
          "name": "_phoneNumber",
          "type": "string"
        },
        {
          "internalType": "string",
          "name": "_companyRegNumber",
          "type": "string"
        },
        {
          "internalType": "enum SupplyChain.RoleType",
          "name": "_role",
          "type": "uint8"
        }
      ],
      "name": "registerBusiness",
      "outputs": [],
      "stateMutability": "nonpayable",
      "type": "function"
    },
    {
      "inputs": [
        {
          "internalType": "string",
          "name": "name",
          "type": "string"
        },
        {
          "internalType": "string",
          "name": "description",
          "type": "string"
        }
      ],
      "name": "registerProduct",
      "outputs": [],
      "stateMutability": "nonpayable",
      "type": "function"
    }
  ],
  "bytecode": "0x6080604052348015600f57600080fd5b50336000806101000a81548173ffffffffffffffffffffffffffffffffffffffff021916908373ffffffffffffffffffffffffffffffffffffffff160217905550612ef18061005f6000396000f3fe608060405234801561001057600080fd5b50600436106100ea5760003560e01c80638efb226f1161008c578063d18264e911610066578063d18264e914610268578063d435078914610298578063da2aff2a146102b4578063da781dba146102d2576100ea565b80638efb226f146101fa5780638fbd0dcf14610216578063b984c6ec14610232576100ea565b80632a127266116100c85780632a1272661461015957806373d9c8f4146101895780637acc0b20146101a55780638da5cb5b146101dc576100ea565b806313f6b1bb146100ef5780631f16653b1461011f5780632931a1081461013d575b600080fd5b61010960048036038101906101049190611da6565b6102ee565b6040516101169190611e63565b60405180910390f35b61012761063a565b6040516101349190611e94565b60405180910390f35b61015760048036038101906101529190611da6565b610640565b005b610173600480360381019061016e9190611f0d565b6108ae565b60405161018091906120ca565b60405180910390f35b6101a3600480360381019061019e9190611da6565b610c46565b005b6101bf60048036038101906101ba9190611da6565b610e77565b6040516101d3989796959493929190612134565b60405180910390f35b6101e4610fdc565b6040516101f191906121cf565b60405180910390f35b610214600480360381019061020f9190611da6565b611000565b005b610230600480360381019061022b919061231f565b611232565b005b61024c60048036038101906102479190611da6565b611492565b60405161025f97969594939291906123a6565b60405180910390f35b610282600480360381019061027d9190611f0d565b611721565b60405161028f9190611e94565b60405180910390f35b6102b260048036038101906102ad9190611da6565b611739565b005b6102bc61196b565b6040516102c99190611e94565b60405180910390f35b6102ec60048036038101906102e79190612456565b611971565b005b606060008211801561030257506002548211155b610341576040517f08c379a00000000000000000000000000000000000000000000000000000000081526004016103389061259f565b60405180910390fd5b6000600481111561035557610354611fa2565b5b6005600084815260200190815260200160002060070160009054906101000a900460ff16600481111561038b5761038a611fa2565b5b036103cd576040518060400160405280601581526020017f526177204d6174657269616c20537570706c69656400000000000000000000008152509050610635565b600160048111156103e1576103e0611fa2565b5b6005600084815260200190815260200160002060070160009054906101000a900460ff16600481111561041757610416611fa2565b5b03610459576040518060400160405280600c81526020017f4d616e75666163747572656400000000000000000000000000000000000000008152509050610635565b6002600481111561046d5761046c611fa2565b5b6005600084815260200190815260200160002060070160009054906101000a900460ff1660048111156104a3576104a2611fa2565b5b036104e5576040518060400160405280600b81526020017f44697374726962757465640000000000000000000000000000000000000000008152509050610635565b600360048111156104f9576104f8611fa2565b5b6005600084815260200190815260200160002060070160009054906101000a900460ff16600481111561052f5761052e611fa2565b5b03610571576040518060400160405280600981526020017f41742052657461696c00000000000000000000000000000000000000000000008152509050610635565b60048081111561058457610583611fa2565b5b6005600084815260200190815260200160002060070160009054906101000a900460ff1660048111156105ba576105b9611fa2565b5b036105fc576040518060400160405280600481526020017f536f6c64000000000000000000000000000000000000000000000000000000008152509050610635565b6040518060400160405280600d81526020017f556e6b6e6f776e2053746167650000000000000000000000000000000000000081525090505b919050565b60025481565b6000600460003373ffffffffffffffffffffffffffffffffffffffff1673ffffffffffffffffffffffffffffffffffffffff168152602001908152602001600020549050600081036106c7576040517f08c379a00000000000000000000000000000000000000000000000000000000081526004016106be9061260b565b60405180910390fd5b6003808111156106da576106d9611fa2565b5b6003600083815260200190815260200160002060060160009054906101000a900460ff1660038111156107105761070f611fa2565b5b14610750576040517f08c379a000000000000000000000000000000000000000000000000000000000815260040161074790612677565b60405180910390fd5b806005600084815260200190815260200160002060060154146107a8576040517f08c379a000000000000000000000000000000000000000000000000000000000815260040161079f906126e3565b60405180910390fd5b600360048111156107bc576107bb611fa2565b5b6005600084815260200190815260200160002060070160009054906101000a900460ff1660048111156107f2576107f1611fa2565b5b14610832576040517f08c379a00000000000000000000000000000000000000000000000000000000081526004016108299061274f565b60405180910390fd5b60046005600084815260200190815260200160002060070160006101000a81548160ff0219169083600481111561086c5761086b611fa2565b5b0217905550817fb8a3401adfc11253c3aff18e4b48103cec45c852b9afc487c23f32e26746242c60046040516108a2919061276f565b60405180910390a25050565b6108b6611cf7565b6000600460008473ffffffffffffffffffffffffffffffffffffffff1673ffffffffffffffffffffffffffffffffffffffff1681526020019081526020016000205490506000810361093d576040517f08c379a0000000000000000000000000000000000000000000000000000000008152600401610934906127d6565b60405180910390fd5b600360008281526020019081526020016000206040518060e0016040529081600082015481526020016001820160009054906101000a900473ffffffffffffffffffffffffffffffffffffffff1673ffffffffffffffffffffffffffffffffffffffff1673ffffffffffffffffffffffffffffffffffffffff1681526020016002820180546109cb90612825565b80601f01602080910402602001604051908101604052809291908181526020018280546109f790612825565b8015610a445780601f10610a1957610100808354040283529160200191610a44565b820191906000526020600020905b815481529060010190602001808311610a2757829003601f168201915b50505050508152602001600382018054610a5d90612825565b80601f0160208091040260200160405190810160405280929190818152602001828054610a8990612825565b8015610ad65780601f10610aab57610100808354040283529160200191610ad6565b820191906000526020600020905b815481529060010190602001808311610ab957829003601f168201915b50505050508152602001600482018054610aef90612825565b80601f0160208091040260200160405190810160405280929190818152602001828054610b1b90612825565b8015610b685780601f10610b3d57610100808354040283529160200191610b68565b820191906000526020600020905b815481529060010190602001808311610b4b57829003601f168201915b50505050508152602001600582018054610b8190612825565b80601f0160208091040260200160405190810160405280929190818152602001828054610bad90612825565b8015610bfa5780601f10610bcf57610100808354040283529160200191610bfa565b820191906000526020600020905b815481529060010190602001808311610bdd57829003601f168201915b505050505081526020016006820160009054906101000a900460ff166003811115610c2857610c27611fa2565b5b6003811115610c3a57610c39611fa2565b5b81525050915050919050565b6000600460003373ffffffffffffffffffffffffffffffffffffffff1673ffffffffffffffffffffffffffffffffffffffff16815260200190815260200160002054905060008103610ccd576040517f08c379a0000000000000000000000000000000000000000000000000000000008152600401610cc49061260b565b60405180910390fd5b600380811115610ce057610cdf611fa2565b5b6003600083815260200190815260200160002060060160009054906101000a900460ff166003811115610d1657610d15611fa2565b5b14610d56576040517f08c379a0000000000000000000000000000000000000000000000000000000008152600401610d4d906128a2565b60405180910390fd5b60026004811115610d6a57610d69611fa2565b5b6005600084815260200190815260200160002060070160009054906101000a900460ff166004811115610da057610d9f611fa2565b5b14610de0576040517f08c379a0000000000000000000000000000000000000000000000000000000008152600401610dd79061274f565b60405180910390fd5b80600560008481526020019081526020016000206006018190555060036005600084815260200190815260200160002060070160006101000a81548160ff02191690836004811115610e3557610e34611fa2565b5b0217905550817fb8a3401adfc11253c3aff18e4b48103cec45c852b9afc487c23f32e26746242c6003604051610e6b919061276f565b60405180910390a25050565b6005602052806000526040600020600091509050806000015490806001018054610ea090612825565b80601f0160208091040260200160405190810160405280929190818152602001828054610ecc90612825565b8015610f195780601f10610eee57610100808354040283529160200191610f19565b820191906000526020600020905b815481529060010190602001808311610efc57829003601f168201915b505050505090806002018054610f2e90612825565b80601f0160208091040260200160405190810160405280929190818152602001828054610f5a90612825565b8015610fa75780601f10610f7c57610100808354040283529160200191610fa7565b820191906000526020600020905b815481529060010190602001808311610f8a57829003601f168201915b5050505050908060030154908060040154908060050154908060060154908060070160009054906101000a900460ff16905088565b60008054906101000a900473ffffffffffffffffffffffffffffffffffffffff1681565b6000600460003373ffffffffffffffffffffffffffffffffffffffff1673ffffffffffffffffffffffffffffffffffffffff16815260200190815260200160002054905060008103611087576040517f08c379a000000000000000000000000000000000000000000000000000000000815260040161107e9061260b565b60405180910390fd5b6001600381111561109b5761109a611fa2565b5b6003600083815260200190815260200160002060060160009054906101000a900460ff1660038111156110d1576110d0611fa2565b5b14611111576040517f08c379a00000000000000000000000000000000000000000000000000000000081526004016111089061290e565b60405180910390fd5b6000600481111561112557611124611fa2565b5b6005600084815260200190815260200160002060070160009054906101000a900460ff16600481111561115b5761115a611fa2565b5b1461119b576040517f08c379a00000000000000000000000000000000000000000000000000000000081526004016111929061274f565b60405180910390fd5b80600560008481526020019081526020016000206004018190555060016005600084815260200190815260200160002060070160006101000a81548160ff021916908360048111156111f0576111ef611fa2565b5b0217905550817fb8a3401adfc11253c3aff18e4b48103cec45c852b9afc487c23f32e26746242c6001604051611226919061276f565b60405180910390a25050565b6000600460003373ffffffffffffffffffffffffffffffffffffffff1673ffffffffffffffffffffffffffffffffffffffff168152602001908152602001600020549050600081036112b9576040517f08c379a00000000000000000000000000000000000000000000000000000000081526004016112b09061260b565b60405180910390fd5b600060038111156112cd576112cc611fa2565b5b6003600083815260200190815260200160002060060160009054906101000a900460ff16600381111561130357611302611fa2565b5b14611343576040517f08c379a000000000000000000000000000000000000000000000000000000000815260040161133a906129a0565b60405180910390fd5b60026000815480929190611356906129ef565b91905055506040518061010001604052806002548152602001848152602001838152602001828152602001600081526020016000815260200160008152602001600060048111156113aa576113a9611fa2565b5b8152506005600060025481526020019081526020016000206000820151816000015560208201518160010190816113e19190612be3565b5060408201518160020190816113f79190612be3565b50606082015181600301556080820151816004015560a0820151816005015560c0820151816006015560e08201518160070160006101000a81548160ff0219169083600481111561144b5761144a611fa2565b5b02179055509050506002547ffe5345b00afbb8e30dd35f9905f6d7917ea45ca811cbcdb0de19673accc660fb846040516114859190611e63565b60405180910390a2505050565b60036020528060005260406000206000915090508060000154908060010160009054906101000a900473ffffffffffffffffffffffffffffffffffffffff16908060020180546114e190612825565b80601f016020809104026020016040519081016040528092919081815260200182805461150d90612825565b801561155a5780601f1061152f5761010080835404028352916020019161155a565b820191906000526020600020905b81548152906001019060200180831161153d57829003601f168201915b50505050509080600301805461156f90612825565b80601f016020809104026020016040519081016040528092919081815260200182805461159b90612825565b80156115e85780601f106115bd576101008083540402835291602001916115e8565b820191906000526020600020905b8154815290600101906020018083116115cb57829003601f168201915b5050505050908060040180546115fd90612825565b80601f016020809104026020016040519081016040528092919081815260200182805461162990612825565b80156116765780601f1061164b57610100808354040283529160200191611676565b820191906000526020600020905b81548152906001019060200180831161165957829003601f168201915b50505050509080600501805461168b90612825565b80601f01602080910402602001604051908101604052809291908181526020018280546116b790612825565b80156117045780601f106116d957610100808354040283529160200191611704565b820191906000526020600020905b8154815290600101906020018083116116e757829003601f168201915b5050505050908060060160009054906101000a900460ff16905087565b60046020528060005260406000206000915090505481565b6000600460003373ffffffffffffffffffffffffffffffffffffffff1673ffffffffffffffffffffffffffffffffffffffff168152602001908152602001600020549050600081036117c0576040517f08c379a00000000000000000000000000000000000000000000000000000000081526004016117b79061260b565b60405180910390fd5b600260038111156117d4576117d3611fa2565b5b6003600083815260200190815260200160002060060160009054906101000a900460ff16600381111561180a57611809611fa2565b5b1461184a576040517f08c379a000000000000000000000000000000000000000000000000000000000815260040161184190612d01565b60405180910390fd5b6001600481111561185e5761185d611fa2565b5b6005600084815260200190815260200160002060070160009054906101000a900460ff16600481111561189457611893611fa2565b5b146118d4576040517f08c379a00000000000000000000000000000000000000000000000000000000081526004016118cb9061274f565b60405180910390fd5b80600560008481526020019081526020016000206005018190555060026005600084815260200190815260200160002060070160006101000a81548160ff0219169083600481111561192957611928611fa2565b5b0217905550817fb8a3401adfc11253c3aff18e4b48103cec45c852b9afc487c23f32e26746242c600260405161195f919061276f565b60405180910390a25050565b60015481565b60008054906101000a900473ffffffffffffffffffffffffffffffffffffffff1673ffffffffffffffffffffffffffffffffffffffff163373ffffffffffffffffffffffffffffffffffffffff16146119ff576040517f08c379a00000000000000000000000000000000000000000000000000000000081526004016119f690612d93565b60405180910390fd5b600073ffffffffffffffffffffffffffffffffffffffff168673ffffffffffffffffffffffffffffffffffffffff1603611a6e576040517f08c379a0000000000000000000000000000000000000000000000000000000008152600401611a6590612dff565b60405180910390fd5b6000600460008873ffffffffffffffffffffffffffffffffffffffff1673ffffffffffffffffffffffffffffffffffffffff1681526020019081526020016000205414611af0576040517f08c379a0000000000000000000000000000000000000000000000000000000008152600401611ae790612e6b565b60405180910390fd5b60016000815480929190611b03906129ef565b91905055506040518060e0016040528060015481526020018773ffffffffffffffffffffffffffffffffffffffff168152602001868152602001858152602001848152602001838152602001826003811115611b6257611b61611fa2565b5b8152506003600060015481526020019081526020016000206000820151816000015560208201518160010160006101000a81548173ffffffffffffffffffffffffffffffffffffffff021916908373ffffffffffffffffffffffffffffffffffffffff1602179055506040820151816002019081611be09190612be3565b506060820151816003019081611bf69190612be3565b506080820151816004019081611c0c9190612be3565b5060a0820151816005019081611c229190612be3565b5060c08201518160060160006101000a81548160ff02191690836003811115611c4e57611c4d611fa2565b5b0217905550905050600154600460008873ffffffffffffffffffffffffffffffffffffffff1673ffffffffffffffffffffffffffffffffffffffff168152602001908152602001600020819055508573ffffffffffffffffffffffffffffffffffffffff166001547f3b76036e195b07f891753eb6d26689976174cdfa7bdc731146ea653ecb7ad3a28784604051611ce7929190612e8b565b60405180910390a3505050505050565b6040518060e0016040528060008152602001600073ffffffffffffffffffffffffffffffffffffffff1681526020016060815260200160608152602001606081526020016060815260200160006003811115611d5657611d55611fa2565b5b81525090565b6000604051905090565b600080fd5b600080fd5b6000819050919050565b611d8381611d70565b8114611d8e57600080fd5b50565b600081359050611da081611d7a565b92915050565b600060208284031215611dbc57611dbb611d66565b5b6000611dca84828501611d91565b91505092915050565b600081519050919050565b600082825260208201905092915050565b60005b83811015611e0d578082015181840152602081019050611df2565b60008484015250505050565b6000601f19601f8301169050919050565b6000611e3582611dd3565b611e3f8185611dde565b9350611e4f818560208601611def565b611e5881611e19565b840191505092915050565b60006020820190508181036000830152611e7d8184611e2a565b905092915050565b611e8e81611d70565b82525050565b6000602082019050611ea96000830184611e85565b92915050565b600073ffffffffffffffffffffffffffffffffffffffff82169050919050565b6000611eda82611eaf565b9050919050565b611eea81611ecf565b8114611ef557600080fd5b50565b600081359050611f0781611ee1565b92915050565b600060208284031215611f2357611f22611d66565b5b6000611f3184828501611ef8565b91505092915050565b611f4381611d70565b82525050565b611f5281611ecf565b82525050565b600082825260208201905092915050565b6000611f7482611dd3565b611f7e8185611f58565b9350611f8e818560208601611def565b611f9781611e19565b840191505092915050565b7f4e487b7100000000000000000000000000000000000000000000000000000000600052602160045260246000fd5b60048110611fe257611fe1611fa2565b5b50565b6000819050611ff382611fd1565b919050565b600061200382611fe5565b9050919050565b61201381611ff8565b82525050565b600060e0830160008301516120316000860182611f3a565b5060208301516120446020860182611f49565b506040830151848203604086015261205c8282611f69565b915050606083015184820360608601526120768282611f69565b915050608083015184820360808601526120908282611f69565b91505060a083015184820360a08601526120aa8282611f69565b91505060c08301516120bf60c086018261200a565b508091505092915050565b600060208201905081810360008301526120e48184612019565b905092915050565b600581106120fd576120fc611fa2565b5b50565b600081905061210e826120ec565b919050565b600061211e82612100565b9050919050565b61212e81612113565b82525050565b60006101008201905061214a600083018b611e85565b818103602083015261215c818a611e2a565b905081810360408301526121708189611e2a565b905061217f6060830188611e85565b61218c6080830187611e85565b61219960a0830186611e85565b6121a660c0830185611e85565b6121b360e0830184612125565b9998505050505050505050565b6121c981611ecf565b82525050565b60006020820190506121e460008301846121c0565b92915050565b600080fd5b600080fd5b7f4e487b7100000000000000000000000000000000000000000000000000000000600052604160045260246000fd5b61222c82611e19565b810181811067ffffffffffffffff8211171561224b5761224a6121f4565b5b80604052505050565b600061225e611d5c565b905061226a8282612223565b919050565b600067ffffffffffffffff82111561228a576122896121f4565b5b61229382611e19565b9050602081019050919050565b82818337600083830152505050565b60006122c26122bd8461226f565b612254565b9050828152602081018484840111156122de576122dd6121ef565b5b6122e98482856122a0565b509392505050565b600082601f830112612306576123056121ea565b5b81356123168482602086016122af565b91505092915050565b6000806040838503121561233657612335611d66565b5b600083013567ffffffffffffffff81111561235457612353611d6b565b5b612360858286016122f1565b925050602083013567ffffffffffffffff81111561238157612380611d6b565b5b61238d858286016122f1565b9150509250929050565b6123a081611ff8565b82525050565b600060e0820190506123bb600083018a611e85565b6123c860208301896121c0565b81810360408301526123da8188611e2a565b905081810360608301526123ee8187611e2a565b905081810360808301526124028186611e2a565b905081810360a08301526124168185611e2a565b905061242560c0830184612397565b98975050505050505050565b6004811061243e57600080fd5b50565b60008135905061245081612431565b92915050565b60008060008060008060c0878903121561247357612472611d66565b5b600061248189828a01611ef8565b965050602087013567ffffffffffffffff8111156124a2576124a1611d6b565b5b6124ae89828a016122f1565b955050604087013567ffffffffffffffff8111156124cf576124ce611d6b565b5b6124db89828a016122f1565b945050606087013567ffffffffffffffff8111156124fc576124fb611d6b565b5b61250889828a016122f1565b935050608087013567ffffffffffffffff81111561252957612528611d6b565b5b61253589828a016122f1565b92505060a061254689828a01612441565b9150509295509295509295565b7f496e76616c69642070726f647563742049442e00000000000000000000000000600082015250565b6000612589601383611dde565b915061259482612553565b602082019050919050565b600060208201905081810360008301526125b88161257c565b9050919050565b7f427573696e657373206e6f7420726567697374657265642e0000000000000000600082015250565b60006125f5601883611dde565b9150612600826125bf565b602082019050919050565b60006020820190508181036000830152612624816125e8565b9050919050565b7f4f6e6c792072657461696c6572732063616e2073656c6c2e0000000000000000600082015250565b6000612661601883611dde565b915061266c8261262b565b602082019050919050565b6000602082019050818103600083015261269081612654565b9050919050565b7f52657461696c6572206d69736d617463682e0000000000000000000000000000600082015250565b60006126cd601283611dde565b91506126d882612697565b602082019050919050565b600060208201905081810360008301526126fc816126c0565b9050919050565b7f496e636f72726563742070726f647563742073746167652e0000000000000000600082015250565b6000612739601883611dde565b915061274482612703565b602082019050919050565b600060208201905081810360008301526127688161272c565b9050919050565b60006020820190506127846000830184612125565b92915050565b7f427573696e657373206e6f742072656769737465726564000000000000000000600082015250565b60006127c0601783611dde565b91506127cb8261278a565b602082019050919050565b600060208201905081810360008301526127ef816127b3565b9050919050565b7f4e487b7100000000000000000000000000000000000000000000000000000000600052602260045260246000fd5b6000600282049050600182168061283d57607f821691505b6020821081036128505761284f6127f6565b5b50919050565b7f4f6e6c792072657461696c6572732063616e2070726f636573732e0000000000600082015250565b600061288c601b83611dde565b915061289782612856565b602082019050919050565b600060208201905081810360008301526128bb8161287f565b9050919050565b7f4f6e6c79206d616e756661637475726572732063616e2070726f636573732e00600082015250565b60006128f8601f83611dde565b9150612903826128c2565b602082019050919050565b60006020820190508181036000830152612927816128eb565b9050919050565b7f4f6e6c7920737570706c696572732063616e2072656769737465722070726f6460008201527f756374732e000000000000000000000000000000000000000000000000000000602082015250565b600061298a602583611dde565b91506129958261292e565b604082019050919050565b600060208201905081810360008301526129b98161297d565b9050919050565b7f4e487b7100000000000000000000000000000000000000000000000000000000600052601160045260246000fd5b60006129fa82611d70565b91507fffffffffffffffffffffffffffffffffffffffffffffffffffffffffffffffff8203612a2c57612a2b6129c0565b5b600182019050919050565b60008190508160005260206000209050919050565b60006020601f8301049050919050565b600082821b905092915050565b600060088302612a997fffffffffffffffffffffffffffffffffffffffffffffffffffffffffffffffff82612a5c565b612aa38683612a5c565b95508019841693508086168417925050509392505050565b6000819050919050565b6000612ae0612adb612ad684611d70565b612abb565b611d70565b9050919050565b6000819050919050565b612afa83612ac5565b612b0e612b0682612ae7565b848454612a69565b825550505050565b600090565b612b23612b16565b612b2e818484612af1565b505050565b5b81811015612b5257612b47600082612b1b565b600181019050612b34565b5050565b601f821115612b9757612b6881612a37565b612b7184612a4c565b81016020851015612b80578190505b612b94612b8c85612a4c565b830182612b33565b50505b505050565b600082821c905092915050565b6000612bba60001984600802612b9c565b1980831691505092915050565b6000612bd38383612ba9565b9150826002028217905092915050565b612bec82611dd3565b67ffffffffffffffff811115612c0557612c046121f4565b5b612c0f8254612825565b612c1a828285612b56565b600060209050601f831160018114612c4d5760008415612c3b578287015190505b612c458582612bc7565b865550612cad565b601f198416612c5b86612a37565b60005b82811015612c8357848901518255600182019150602085019450602081019050612c5e565b86831015612ca05784890151612c9c601f891682612ba9565b8355505b6001600288020188555050505b505050505050565b7f4f6e6c79206469737472696275746f72732063616e2070726f636573732e0000600082015250565b6000612ceb601e83611dde565b9150612cf682612cb5565b602082019050919050565b60006020820190508181036000830152612d1a81612cde565b9050919050565b7f4f6e6c79206f776e65722063616e2063616c6c20746869732066756e6374696f60008201527f6e00000000000000000000000000000000000000000000000000000000000000602082015250565b6000612d7d602183611dde565b9150612d8882612d21565b604082019050919050565b60006020820190508181036000830152612dac81612d70565b9050919050565b7f496e76616c69642077616c6c6574206164647265737300000000000000000000600082015250565b6000612de9601683611dde565b9150612df482612db3565b602082019050919050565b60006020820190508181036000830152612e1881612ddc565b9050919050565b7f427573696e65737320616c726561647920726567697374657265640000000000600082015250565b6000612e55601b83611dde565b9150612e6082612e1f565b602082019050919050565b60006020820190508181036000830152612e8481612e48565b9050919050565b60006040820190508181036000830152612ea58185611e2a565b9050612eb46020830184612397565b939250505056fea2646970667358221220bcbb0a67e91c62493b6012ba9e194f42bd6045433722c723f781b445198410f164736f6c634300081c0033",
  "linkReferences": {},
  "deployedLinkReferences": {}
}